:100900003F065B4F666D7D077F6F777C395E79713F
:0109100000E6
:0D0911000209000701230001240001270056
:0608EF00D2A07F0A7E008A
:0B08F500EF1FAC0670011E4C70F622D5
:1003D300C2A3C2A01208F1D2A0D2A41208F1C2A0F3
:1003E300D2A11208F1D2A0C2A41208F1C2A0C2A1E4
:1003F300800820A20A1208EFC2A01208F180F3D2EB
:10040300A3209007E4F511F512800675110075120B
:1004130001209107E4F513F5148006751300751494
:1004230001209207E4F515F516800675150075167B
:1004330001209307E4F519F51A8006751900751A5A
:1004430001209407E4F51BF51C8006751B00751C41
:1004530001209507E4F51DF51E8006751D00751E28
:1004630001209607E4F51FF5208006751F0075200F
:1004730001209707E4F521F52280067521007522F6
:1004830001E514AE137806C333CE33CED8F9FDACF1
:1004930006E512AE117807C333CE33CED8F92DFD5E
:1004A300EE3CFCE516AE157805C333CE33CED8F952
:1004B3002DFDEC3EFCE51AC4F8540FC868FFE5199E
:1004C300C454F048FEED2FFDEC3EFCE51CAE1B785A
:1004D30003C333CE33CED8F92DFDEC3EFCE51EAE7F
:1004E3001D7802C333CE33CED8F92DFDEC3EFCE5A7
:1004F3002025E0FFE51F33FEED2FFFEC3EFEE52256
:100503002FF510E5213EF50F1208EFAE0FAF1022C5
:1008AC0020B0127FD07E071208F520B03230B0FD98
:1008BC007E007F012220B1127FD07E071208F52026
:1008CC00B11D30B1FD7E007F022220B2127FD07E9E
:1008DC00071208F520B20830B2FD7E007F0322E437
:0308EC00FEFF22EA
:060848007D017C007E0032
:08084E008E298F2A8C2B8D2CC2
:10085600782D7C007D007BFF7A0979007E007F1170
:10086600120338742D252CF8E6F580E5297026E567
:100876002A24FE600E14601314601424037016C23A
:10088600B48002D2B4C2B5D2B6800AC2B48002D253
:10089600B4D2B5D2B67F327E001208F5E4F580D226
:0508A600B4D2B5D2B68A
:0108AB00222A
:1006A700E4F5281208ACEE704BEF24FE600C1460E2
:1006B700272402703F752801803AD3E50A9400E5A4
:1006C700099400402FE50A150A700215091208ACB3
:1006D700EF64014E701E80F5C3E50A9411E5099495
:1006E700005011050AE50A700205091208ACEF640B
:1006F700014E60F7E52864016036AE09AF0A7C0059
:100707007D0A120370AC06AD077F037E0012084E08
:10071700AE09AF0A7C007D0A1203707F047E0012C7
:10072700084E7D0B7C007F017E0012084E0206AA50
:01073700229F
:10051300E4F5287517007518321203D3AC06AD073E
:10052300EC1201AE8F0E8E0D8D0C8C0BE4FBFA7961
:100533007F784312010CE4FBFA792A784312000313
:100543001201E78E258F26E51845176055E5181526
:100553001870021517AE25AF267C007D6412037058
:10056300AC06AD077F027E0012084EAE25AF267C97
:10057300007D641203707E007F0ACFCDCFCECCCE38
:10058300120370AC06AD077F037E0012084EAE2542
:10059300AF267C007D0A1203707F047E0012084E92
:1005A30080A51208ACEE7007EF147003752801E5FF
:1005B3000824FE601D047040AE09AF0A7C007D0A6A
:1005C30012035EC3E5269FE5259E40028020C2A656
:1005D3008026AE09AF0A7C007D0A12035ED3E526AE
:1005E3009FE5259E5010D2B7C2B7D2B7C2B7D2B7D4
:1005F300C2B7D2A68002C2A6E52864016003020541
:020603001622BD
:10060500E4F528E50814602314603624027055C209
:10061500A7E4FDFC7F02FE12084EE4FDFC7F03FE0D
:1006250012084EE4FDFC7F04FE8036D2A77F02123D
:1006350008487F031208487D017C007F047E008006
:1006450020D2A77D027C007F027E0012084E7D022B
:100655007C007F037E0012084E7D027C007F047EB5
:100665000012084E1208ACEE702CEF24FE60080450
:100675007024752801801FE50814600E146012248B
:10068500027013750801D2A7800C750802D2A780E5
:1006950005E4F508C2A7E52864016003020608F52C
:0106A500282C
:0106A6002231
:1007C400E4F508C2A6C2A77D0A7C007F017E001260
:1007D400084E1208ACEE7010EF24FE600804700896
:1007E4007523018003120513E523B401DAE4F5232C
:1007F4007D0B7C007F017E0012084E1208ACEE7067
:1008040010EF24FE600804700875240180031206AA
:10081400A7E524B401DAE4F5247D0C7C007F017E95
:100824000012084E1208ACEE7010EF24FE600804AB
:1008340070087527018003120605E527B401DAE480
:04084400F527808391
:10000300EC4D6011E8497017ED33EC3304600DE4F7
:10001300FCFFFEFD22E933E8330470F802025312B9
:10002300021E58046009E4CC2481500628500902BA
:10003300025D28400302025AC0E0EB4A7044B980D3
:1000430006D0E0FB020249EF4E701CBD8008EBFFB7
:10005300EAFEE9FD80EBE98DF0A4FEE5F00200EC99
:10006300E9CDF9EAFEEBFFEF89F0A4FCE5F0CE89D8
:10007300F0A42EFFE435F0CD89F0A42DFEE435F095
:100083008067EF4E7005BD80D780C3EF8BF0A4ACC3
:10009300F0EE8BF0A42CFCE435F0F8EF8AF0A42CFE
:1000A300E5F038FCE433CB8DF0A42CFCE5F03BF811
:1000B300EE8AF0A42CFCE5F038F8E433CF89F0A401
:1000C3002CFCE5F038CF3400CE89F0A42FFFE5F007
:1000D3003EFEE433C98DF0A42EFEE5F039CD8AF05F
:1000E300A42FFFE5F03EFEE43DFD33D0E0FB5007D7
:1000F3000BBB000F02025DEC2CFCEF33FFEE33FE73
:06010300ED33FD020235A0
:1001090002025DEC5D046005E859047003020253C4
:1001190012021E580460F6EC4860F2EC7004FDFE11
:10012900FF22C860DB2481C85009C39860025006C9
:1001390002025A9850CAF582E9294B4A7005AB82E6
:1001490002024975F0007C1A7880C3EF9BEE9AEDA4
:1001590099400DC3EF9BFFEE9AFEED99FDE842F041
:10016900DC23ACF0D0E0FFD0E0FED0E0FDAB822094
:10017900E7101BEB60BAEC2CFCEF33FFEE33FEED1E
:1001890033FD020235E803F830E705C0F075F000E9
:10019900EF2FFFEE33FEED33FD40B830E7C280AA02
:1001A90075F020800E75F010800575F0087D007ED1
:1001B900007F003392D530D5031203C5EC334010CC
:1001C900EF33FFEE33FEED33FDEC33FCD5F0ED22DA
:0E01D900E5F0247EA2D513CC92E7CDCEFF2216
:1001E700EDD2E7CD33EC3392D524814006E4FFFE10
:1001F700FDFC22FCE4CFCECDCC24E0501174FF806F
:10020700EDC3CC13CCCD13CDCE13CECF13CF04700B
:07021700F030D5DE0203C543
:10021E00E9D2E7C933E833F892D5EDD2E7CD33EC26
:07022E0033FC5002B2D5229F
:10023500EC30E7100FBF000C0EBE00080DBD00042A
:100245000BEB6014A2D5EB13FCED92E7FD2274FFD6
:10025500FCFDFEFF22E480F8A2D574FF13FC7D802F
:03026500E480EF43
:03000000020738BC
:0C073800787FE4F6D8FD75813D02077F54
:10026800E709F608DFFA8046E709F208DFFA803E78
:1002780088828C83E709F0A3DFFA8032E309F60865
:10028800DFFA8078E309F208DFFA807088828C83CD
:10029800E309F0A3DFFA806489828A83E0A3F60881
:1002A800DFFA805889828A83E0A3F208DFFA804C5B
:1002B80080D280FA80C680D4806980F28033801032
:1002C80080A680EA809A80A880DA80E280CA80339B
:1002D80089828A83ECFAE493A3C8C582C8CCC58313
:1002E800CCF0A3C8C582C8CCC583CCDFE9DEE780E3
:1002F8000D89828A83E493A3F608DFF9ECFAA9F062
:10030800EDFB2289828A83ECFAE0A3C8C582C8CCB7
:10031800C583CCF0A3C8C582C8CCC583CCDFEADED0
:10032800E880DB89828A83E493A3F208DFF980CC32
:1003380088F0EF60010E4E60C388F0ED2402B4042B
:100348000050B9F582EB2402B4040050AF232345D2
:0603580082239002B8733D
:10035E00EF8DF0A4A8F0CF8CF0A428CE8DF0A42EB3
:02036E00FE226D
:10037000BC000BBE0029EF8DF084FFADF022E4CC71
:10038000F875F008EF2FFFEE33FEEC33FCEE9DEC3A
:10039000984005FCEE9DFE0FD5F0E9E4CEFD22ED80
:1003A000F8F5F0EE8420D21CFEADF075F008EF2FCA
:1003B000FFED33FD4007985006D5F0F222C398FDBB
:0503C0000FD5F0EA2258
:0E03C500C3E49FFFE49EFEE49DFDE49CFC2249
:100744000207C4E493A3F8E493A34003F68001F200
:1007540008DFF48029E493A3F85407240CC8C333B6
:10076400C4540F4420C8834004F456800146F6DF85
:10077400E4800B0102040810204080900911E47EFB
:10078400019360BCA3FF543F30E509541FFEE4937A
:10079400A360010ECF54C025E060A840B8E493A341
:1007A400FAE493A3F8E493A3C8C582C8CAC583CA6C
:1007B400F0A3C8C582C8CAC583CADFE9DEE780BE24
:01091E0000D8
:00000001FF
